:060000000A128A110C280F
:10000800FE00030EF0000A08F1000A168A11612E9C
:100018000A128A110F288313C230FD001530FE0022
:100028009E30FF00A03084000A168A1140250A126B
:100038008A117030FD001530FE001830FF006D3059
:1000480084000A168A1140250A128A11831603139E
:10005800C201C301C401C501C601C701C801C90164
:10006800CA01CB0183120313E101E201E301E401B8
:10007800E501E601E701E801E901EA01EB01EC012C
:10008800FA01FB0183010A128A15A42C83120313B7
:10009800DB000A168A119B260A128A111230831273
:1000A80003136E06031D59285A28F6290A168A11C1
:1000B8002F250A128A112530F6009130F70080307A
:1000C800F8000A168A1132260A128A117B0883124E
:1000D8000313D4005407A03E840083130008F600DD
:1000E800840A00088403F7008630F8000A168A118B
:1000F80032260A128A113A30F6009130F700C030E1
:10010800F8000A168A1132260A128A11C63083129A
:100118000313A0000A30F2000030F3006C08D4008A
:10012800D5015408F4005508F5000A128A15532021
:100138000A128A117208303E0A168A114F250A12CD
:100148008A11C73083120313A0000A30F20000306E
:10015800F3006C08D400D5015408F4005508F500E4
:100168000A168A1148270A128A117208303E0A169E
:100178008A114F250A128A11C83083120313A0006E
:100188003A300A168A114F250A128A11C930831289
:100198000313A0000A30F2000030F3006B08D4000B
:1001A800D5015408F4005508F5000A128A155320A1
:1001B8000A128A117208303E0A168A114F250A124D
:1001C8008A11CA3083120313A0000A30F2000030EB
:1001D800F3006B08D400D5015408F4005508F50065
:1001E8000A168A1148270A128A117208303E0A161E
:1001F8008A114F250A128A110D30F6009130F70046
:100208009530F8000A168A1132260A128A113330FC
:1002180083120313D600BB30D500DF30D400D40BD3
:100228001329D50B1329D60B13290A168A112F2542
:100238000A128A118630F6009030F7008030F800F4
:100248000A168A1132260A128A113A30F6009130BB
:10025800F700C030F8000A168A1132260A128A11ED
:100268000030F6009030F700D030F8000A168A11F6
:1002780032260A128A11831203136C08D400D5019E
:100288005408F2005508F3003C30F4000030F50043
:100298000A168A11E4250A128A11831203136B08BD
:1002A8007207E7000030031801307307E800680898
:1002B800E6006708E5006708F2006808F300003008
:1002C800F31BFF30F400F50001300A128A113E27B3
:1002D8000A128A11750883120313AD007408AC0062
:1002E8007308AB007208AA003E30A900EB30A800E2
:1002F8008530A7001F30A6000A128A11F9230A12B6
:100308008A11831203132908C3002808C20027088A
:10031800C1002608C0000A128A15BA200A128A11DA
:10032800831203134108E4004008E3006708F20061
:100338006808F3000030F31BFF30F400F5000130CB
:100348000A128A113E270A128A11750883120313AA
:10035800AD007408AC007308AB007208AA003D3009
:10036800A900F530A800C230A7008F30A6000A12F5
:100378008A11F9230A128A11831203132908C30068
:100388002808C2002708C1002608C0000A128A15DA
:10039800BA200A128A11831203134108E2004008A6
:1003A800E1006309D4006409D500D40A0319D50A09
:1003B80061085402D6006208031C620A5502D7007D
:1003C8006708560783160313C400831203136808CB
:1003D8000318680A570783160313C500831203130B
:1003E800071512151F305B06031DFB29FC29002A7F
:1003F800071112110530EF006C08D400D50154081C
:10040800F2005508F3003C30F4000030F5000A16FD
:100418008A11E4250A128A11831203136B087207E2
:10042800E7000030031801307307E80008307B024A
:1004380003181F2A202A892A63086502D400640841
:10044800031C640A6602D5006808803AD60055087D
:10045800803A5602031D322A54086702031C352AC3
:10046800362A422AC430F6009030F7008B30F80064
:100478000A168A1132260A128A113E2B8312031396
:100488006309D4006409D500D40A0319D50A831670
:1004980003134408831203135402D600831603136C
:1004A8004508031C450A831203135502D700650843
:1004B8005607D80066080318660A5707D90068085F
:1004C800803ADA005908803A5A02031D6D2A580802
:1004D8006702031C702A712A7D2A4030F600913089
:1004E800F7008B30F8000A168A1132260A128A1190
:1004F8003E2B5730F6009130F7008B30F8000A1683
:100508008A1132260A128A113E2B08307B06031DF7
:100518008E2A8F2A212B6708F2006808F300003022
:10052800F31BFF30F400F50001300A128A113E2750
:100538000A128A11750883120313CB007408CA00C3
:100548007308C9007208C8006508F2006608F3005D
:100558000030F31BFF30F400F50001300A128A1155
:100568003E270A128A11750883120313C7007408FC
:10057800C6007308C5007208C4006508F200660862
:10058800F3000030F31BFF30F400F50001300A12CD
:100598008A113E270A128A11750883120313AD00C7
:1005A8007408AC007308AB007208AA003E30A900BA
:1005B800CC30A800CC30A700CD30A6000A128A1192
:1005C800F9230A128A11831203132908C300280881
:1005D800C2002708C1002608C0000A168A11C025D3
:1005E8000A128A11831203134308CF004208CE006F
:1005F8004108CD004008CC000A128A1532210A129F
:100608008A11031C082B092B152B5730F600913043
:10061800F7008B30F8000A168A1132260A128A115E
:100628003E2B5730F6009130F7008B30F8000A1651
:100638008A1132260A128A113E2B09307B06031DC5
:10064800262B272B332B5730F6009130F7008B30B1
:10065800F8000A168A1132260A128A113E2BC43073
:10066800F6009030F7008B30F8000A168A1132260F
:100678000A128A11C63083120313A0000A30F2004E
:100688000030F3006C08D400D5015408F400550874
:10069800F5000A128A1553200A128A117208303E90
:1006A8000A168A114F250A128A11C73083120313BA
:1006B800A0000A30F2000030F3006C08D400D50125
:1006C8005408F4005508F5000A168A1148270A123A
:1006D8008A117208303E0A168A114F250A128A11A9
:1006E800C83083120313A0003A300A168A114F2526
:1006F8000A128A11C93083120313A0000A30F200CB
:100708000030F3006B08D400D5015408F4005508F4
:10071800F5000A128A1553200A128A117208303E0F
:100728000A168A114F250A128A11CA308312031336
:10073800A0000A30F2000030F3006B08D400D501A5
:100748005408F4005508F5000A168A1148270A12B9
:100758008A117208303E0A168A114F250A128A1128
:10076800831203136B08031DBA2BBB2BF82B6C08E1
:10077800031DBF2BC02BF82B0711121187140A1663
:100788008A112F250A128A113230F6009030F700AC
:100798008030F8000A168A1132260A128A1150305F
:1007A800F6009030F700C030F8000A168A11322699
:1007B8000A128A11333083120313D600BB30D500D6
:1007C800DF30D400D40BE62BD50BE62BD60BE62B6B
:1007D800831203138710EF01EF0A1030EE000A1698
:1007E8008A112F250A128A11080083120313290877
:1007F8008039B3002908AE002E07B900A81F052CC0
:10080800062C072C3914390803190B2C0C2C1B2C1B
:10081800390A031D102C112C192C0030A9000030A6
:10082800A8000030A7000030A600A817232C00302D
:10083800A9000030A8000030A7000030A6002D084D
:100848008039FF007F08B3062D08AE002E07B400DC
:10085800AC1F2F2C302C312C341434080319352CB0
:10086800362C452C340A031D3A2C3B2C432C0030E3
:10087800AD000030AC000030AB000030AA00AC176F
:100888004D2C0030AD000030AC000030AB00003023
:10089800AA0034080319512C522C572C3908031D6F
:1008A800562C572C602C0030A9000030A8000030CE
:1008B800A7000030A6003D2F2608F2002C080A16D3
:1008C8008A1109260A128A11730883120313BF00BA
:1008D8007208BE003E08AE00AF01B001B101310898
:1008E800B8003008B7002F08B6002E08B5003F083A
:1008F800AE00AF01B001B1013108BD003008BC0045
:100908002F08BB002E08BA002708F2002B080A1689
:100918008A1109260A128A11730883120313BF0069
:100928007208BE003E08AE00AF01B001B1012E084A
:10093800B5072F0803110318013E0319A42CB607A5
:10094800300803110318013E0319AB2CB70731080F
:1009580003110318013E0319B22CB8073F08AE0073
:10096800AF01B001B1012E08BA072F08031103180F
:10097800013E0319C02CBB07300803110318013EC0
:100988000319C72CBC07310803110318013E0319CA
:10099800CE2CBD072808F2002A080A168A11092653
:1009A8000A128A11730883120313BF007208BE006B
:1009B8003E08AE00AF01B001B1012E08B5072F08FF
:1009C80003110318013E0319EA2CB6073008031176
:1009D8000318013E0319F12CB70731080311031856
:1009E800013E0319F82CB8073F08AE00AF01B0016B
:1009F800B1012E08BA072F0803110318013E031985
:100A0800062DBB07300803110318013E03190D2DED
:100A1800BC07310803110318013E0319142DBD0743
:100A28000830AE000310B50DB60DB70DB80DAE0BFE
:100A3800162D2708F2002A080A168A1109260A1212
:100A48008A11730883120313BF007208BE003E08A0
:100A5800AE003F08AF00B001B1012E08B5072F085E
:100A680003110318013E03193A2DB6073008031184
:100A78000318013E0319412DB70731080311031864
:100A8800013E0319482DB8072608F2002B080A165C
:100A98008A1109260A128A11730883120313BF00E8
:100AA8007208BE003E08AE003F08AF00B001B101B9
:100AB8002E08B5072F0803110318013E0319652DE9
:100AC800B607300803110318013E03196C2DB70748
:100AD800310803110318013E0319732DB8070830B4
:100AE800AE000310B50DB60DB70DB80DAE0B752DD4
:100AF8002608F2002A080A168A1109260A128A11FB
:100B0800730883120313BF007208BE003E08AE00CC
:100B18003F08AF00B001B1012E08B5072F08031137
:100B28000318013E0319992DB6073008031103185D
:100B3800013E0319A02DB707310803110318013E20
:100B48000319A72DB8072708F2002C080A168A11DE
:100B580009260A128A11730883120313BF00720848
:100B6800BE003E08AE003F08AF00B001B1012E083C
:100B7800BA072F0803110318013E0319C42DBB0738
:100B8800300803110318013E0319CB2DBC073108A7
:100B980003110318013E0319D22DBD072808F200DE
:100BA8002B080A168A1109260A128A117308831259
:100BB8000313BF007208BE003E08AE003F08AF0036
:100BC800B001B1012E08BA072F0803110318013E1E
:100BD8000319EF2DBB07300803110318013E031951
:100BE800F62DBC07310803110318013E0319FD2D2A
:100BF800BD072808F2002C080A168A1109260A12CD
:100C08008A11730883120313BF007208BE003E08DE
:100C1800AE003F08AF00B001B10108300310AE0DBF
:100C2800AF0DB00DB10DFF3E031D122E2E08BA07F1
:100C38002F0803110318013E0319232EBB073008A0
:100C480003110318013E03192A2EBC0731080311AA
:100C58000318013E0319312EBD073508AE003608CA
:100C6800AF003708B0003808B10018300310B10CD5
:100C7800B00CAF0CAE0CFF3E031D3A2E2E08BA077F
:100C88002F0803110318013E03194B2EBB07300828
:100C980003110318013E0319522EBC073108031132
:100CA8000318013E0319592EBD070830AE00031082
:100CB800B50DB60DB70DB80DAE0B5B2E3908340760
:100CC800AE00AF01AF0D2E08823EBE002F080318FC
:100CD800013EFF3EBF008D2E0130AE000310BA0D5D
:100CE800BB0DBC0DBD0DAE0B722EB81F7C2E7D2E1C
:100CF8007E2E3A140130AE000310B50DB60DB70DB7
:100D0800B80DAE0B802EFF30BE070318BF0AFF30A8
:100D1800BF07BC1F902E912E702EB401B81F952EC0
:100D2800962EB22EFF303505AE00FF303605AF00E7
:100D3800FF303705B0007F303805B1003108300486
:100D48002F042E040319A92EAA2EAD2EB401B40A1D
:100D5800B22E3A1CB02EB12EB22EAA2E3408031988
:100D6800B62EB72EE82E0130BA070030031801302E
:100D7800BB07003003180130BC07003003180130EE
:100D8800BD073D1CC82EC92EE82E3A08AE003B0808
:100D9800AF003C08B0003D08B1000130B200310D91
:100DA800B10CB00CAF0CAE0CB20BD32E3108BD0099
:100DB8003008BC002F08BB002E08BA000130BE075F
:100DC8000318BF0A0030BF073F08803AFF00803091
:100DD8007F02031DF12EFF303E02031CF42EF52E78
:100DE800002F7F3083120313BD008030BC00003019
:100DF800BB000030BA00312F831203133F08803A3A
:100E0800FF0080307F02031D0B2F01303E020318C4
:100E18000E2F0F2F1B2F003083120313BD0000303D
:100E2800BC000030BB000030BA00B301312F831280
:100E380003133E08B900FF30BA05FF30BB057F3009
:100E4800BC050030BD05391C2A2F2B2F2C2FBC17B1
:100E58003908AE0003102E0CBD003308FF007F08D0
:100E6800BD043D08A9003C08A8003B08A7003A08B3
:100E7800A600080083120313A00020080319452FB9
:100E8800462F5A2FF51F492F4A2F5A2F7209A200B1
:100E98007309A3007409A4007509A500A20A03191F
:100EA800A30A0319A40A0319A50A622F7508A50045
:100EB8007408A4007308A3007208A20075087404DB
:100EC80073047204031D692F6A2F732F0030F50015
:100ED8000030F4000030F3000030F200F72F9630B5
:100EE800A100832F0130FF007F08A1070130031004
:100EF800A50CA40CA30CA20CFF3E031D7B2FFE30F7
:100F08002505031D882F892F762FA52F0130FF0077
:100F18007F08A1070130A207003003180130A3079A
:100F2800003003180130A407003003180130A5076A
:100F380001300310A50CA40CA30CA20CFF3E031D4A
:100F48009D2FFF302505031DAA2FAB2F8A2FB72F02
:100F58000130A1020130F6000310A20DA30DA40D6B
:100F6800A50DF60BB02FA41BBA2FBB2FC12F023033
:100F780021020318C02FC12FAC2F2118C42FC52F51
:100F8800CD2FFF30A205FF30A3057F30A405FF3029
:100F9800A5050310A10C2108F600F701F801F901D5
:100FA80018300310F60DF70DF80DF90DFF3E031D6F
:100FB800D52F7608A2047708A3047808A404790832
:100FC800A50420080319E92FEA2FEF2FF51FED2FAD
:100FD800EE2FEF2FA5172508F5002408F4002308A5
:100FE800F3002208F20008008316031306083F38AE
:040FF8008600080067
:10100000C330F700CD30F600F60B0428F70B0428A8
:10101000F20133300A168A117E250A128A151B3016
:10102000F7009E30F600F60B1328F70B132800008C
:10103000F20133300A168A117E250A128A15A6306B
:10104000F600F60B21280000F20133300A168A114F
:101050007E250A128A152C282D280000F201303036
:101060000A168A117E250A128A15A630F600F60B9A
:1010700037280000F20101300A168A117E250A1273
:101080008A15A630F600F60B43280000F2010C305A
:101090000A168A117E250A128A15A630F600F60B6A
:1010A0004F2800000800F701F31F572858285F2831
:1010B000F209F309F20A0319F30AF701F70AF51F17
:1010C000622863286C28F409F509F40A0319F50A63
:1010D0000130FF007F08F706F801F9017208730478
:1010E000031973287428AB28F601F60A8228013008
:1010F0000310F20DF30DFF3E031D78280130FF00B1
:101100007F08F607F31F852886287728013003100B
:10111000F80DF90DFF3E031D872873087502031DA6
:10112000932872087402031C962897289E28720838
:10113000F4027308031CF503F50278140130031060
:10114000F30CF20CFF3E031D9F280130F602031D35
:10115000AA28AB28862877080319AF28B028B52815
:10116000F809F909F80A0319F90A7908F300780867
:10117000F2000800031083120313420D430DC9004F
:101180004908031DC428C528CE280030C3000030FC
:10119000C2000030C1000030C00031294008C40046
:1011A0004108C5004208C6004308C7001F300310AD
:1011B000C70CC60CC50CC40CFF3E031DD728440841
:1011C000C800C217FF30C005FF30C105FF30C2059F
:1011D0000030C3059630C902C91FEF28F0280A293C
:1011E0004908803A973E0318F628F728F828C528BA
:1011F00001300310C30CC20CC10CC00CFF3E031D18
:10120000F9280130FF007F08C907031D08290929B3
:10121000F828212920304902031C0F2910291C29F4
:10122000C5280130C4000310C00DC10DC20DC30D8F
:10123000C40B13290130C9024908031D20292129A3
:10124000112948080319252926293129C009C1096E
:10125000C209C309C00A0319C10A0319C20A031942
:10126000C30A08000030831203134805D000003081
:101270004905D10080304A05D2007F304B05D300AC
:101280005308520451045004031D4729482950298A
:101290000030CB000030CA000030C9000030C80068
:1012A00000304C05D00000304D05D10080304E0597
:1012B000D2007F304F05D30053085204510450042C
:1012C000031D632964296C290030CF000030CE0053
:1012D0000030CD000030CC00CB1F6F29702994293D
:1012E0000030D0000030D1000030D2008030D30078
:1012F0004808D0024908031C490F7F298029D102E0
:101300004A08031C4A0F85298629D2024B08031C70
:101310004B0F8B298C29D3025308CB005208CA00EB
:101320005108C9005008C800CF1F97299829BC2927
:101330000030D0000030D1000030D2008030D30027
:101340004C08D0024D08031C4D0FA729A829D10233
:101350004E08031C4E0FAD29AE29D2024F08031CC4
:101360004F0FB329B429D3025308CF005208CE003F
:101370005108CD005008CC008030CB068030CF061D
:101380004F084B02031DCE294E084A02031DCE29E9
:101390004D084902031DCE294C0848020318D129E3
:1013A000D229D4290310D52903140800912A213009
:1013B00083120313EB00EC01B72A293083120313C5
:1013C000EB00DB292D3083120313EB00DB297A08B5
:1013D000003A0319DD29013A0319D729033A031901
:1013E000DD29013A0319E229073A0319E229B72A4C
:1013F0002B3083120313EB00DB29323083120313EB
:10140000EB00DB29393083120313EB00DB297A0868
:10141000003A0319FD29013A0319F829033A03197F
:10142000FD29013A0319022A073A0319022AB72AA9
:101430001A3083120313EB00DB291F3083120313CE
:10144000EB00DB297A08003A0319182A013A03193C
:10145000182A023A03191D2A073A03191D2AB72A26
:10146000103083120313EB00EC01EC0AB72A2E3084
:1014700083120313EB00DB29353083120313EB00D7
:10148000DB2983120313EB01342A7A08003A03198B
:101490003C2A013A0319372A033A03193C2A013A34
:1014A0000319412A073A0319412AB72A1230831235
:1014B0000313EB00DB29143083120313EB00DB2949
:1014C0007A08003A03195B2A013A0319562A033AAB
:1014D00003195B2A013A03195B2A073A03195B2AAD
:1014E000B72A063083120313EB00DB291030831276
:1014F0000313EB00DB29153083120313EB00DB2908
:101500007A08003A03197B2A013A0319762A033A2A
:1015100003197B2A013A0319182A073A0319182AD2
:10152000B72A7B08003A0319E729013A0319072A69
:10153000033A0319222A013A0319302A073A0319F8
:10154000302A013A0319302A033A0319302A013AA2
:101550000319452A0F3A0319602A013A0319712A1F
:10156000033A0319802A013A0319802AB72A08008E
:1015700083120313A40010306E06031DC02AC12A73
:10158000C72A0A168A112F250A128A15FB0137303D
:10159000831203132406031DCE2ACF2ADF2A01302B
:1015A000FF007F08FB070A168A112F250A128A15E9
:1015B0000C307B06031DDD2ADE2ADF2AFB011130F9
:1015C000F6009030F7008030F8000A168A113226B3
:1015D0000A128A15C03083120313A0002A300A169B
:1015E0008A114F250A128A150A307B020318F92A3C
:1015F000FA2A3A2B7B0883120313A2002207A03E8B
:10160000840083130008F600840A00088403F700AE
:10161000C230F8000A168A1132260A128A157B088F
:1016200083120313A2002207A23E84008313000842
:10163000F600840A00088403F7009230F8000A16C6
:101640008A1132260A128A157B0883120313A2001C
:101650002207A43E840083130008F600840A0008D1
:101660008403F700D230F8000A168A1132260A12D3
:101670008A15AD2B0A307B06031D3F2B402B782BA0
:101680007B0883120313A2002207A03E8400831369
:101690000008F600840A00088403F700C230F8004E
:1016A0000A168A1132260A128A157B08831203133E
:1016B000A2002207A23E840083130008F600840AD9
:1016C00000088403F7009230F8000A168A113226C7
:1016D0000A128A15831603132008F6002108F70062
:1016E000D230F8000A168A1132260A128A15AD2B5A
:1016F0000B307B06031D7D2B7E2BAD2B7B088312CD
:101700000313A2002207A03E840083130008F60002
:10171000840A00088403F700C230F8000A168A1110
:1017200032260A128A15831603132008F6002108B0
:10173000F7009230F8000A168A1132260A128A152A
:10174000831603132208F6002308F700D230F800AE
:101750000A168A1132260A128A1508008312031308
:10176000A40011306E06031DB62BB72BBD2BFA015A
:101770000A168A112F250A128A153730831203138D
:101780002406031DC42BC52BD52B0130FF007F0879
:10179000FA0705307A06031DCE2BCF2BD02BFA018A
:1017A0000A168A112F250A128A155F30F60090302A
:1017B000F7008030F8000A168A1132260A128A15BC
:1017C000C03083120313A0002A300A168A114F2555
:1017D0000A128A1503307A020318EF2BF02B302CF3
:1017E0007A0883120313A2002207B83E84008313F1
:1017F0000008F600840A00088403F700C230F800ED
:101800000A168A1132260A128A157A0883120313DD
:10181000A2002207BA3E840083130008F600840A5F
:1018200000088403F7009230F8000A168A11322665
:101830000A128A157A0883120313A2002207BC3EFB
:10184000840083130008F600840A00088403F7006C
:10185000D230F8000A168A1132260A128A15A32CF1
:1018600003307A06031D352C362C6E2C7A08831231
:101870000313A2002207B83E840083130008F60079
:10188000840A00088403F700C230F8000A168A119F
:1018900032260A128A157A0883120313A20022073D
:1018A000BA3E840083130008F600840A000884030B
:1018B000F7009230F8000A168A1132260A128A15A9
:1018C000831603133808F6003908F700D230F80001
:1018D0000A168A1132260A128A15A32C04307A06B7
:1018E000031D732C742CA32C7A0883120313A200FB
:1018F0002207B83E840083130008F600840A00081B
:101900008403F700C230F8000A168A1132260A1240
:101910008A15831603133808F6003908F700923049
:10192000F8000A168A1132260A128A158316031342
:101930003A08F6003B08F700D230F8000A168A1180
:1019400032260A128A1508000A168A1164250A121C
:101950008A154130F6009030F7008130F8000A1601
:101960008A1132260A128A15FB30F6009030F700F1
:10197000C430F8000A168A1132260A128A1522305B
:10198000F6009030F7009130F8000A168A113226DE
:101990000A128A15DF2CB83083120313DC000B30D7
:1019A000DD000130DC020030031CDD03DD025C0AD7
:1019B000031DDE2C5D0A031DDE2CDF2CD12C013033
:1019C0000A168A11A1270A128A152F3A031DE92C3B
:1019D000EA2CCB2C0A168A11F1260A128A1501303C
:1019E0000A168A11A1270A128A1583120313E0002E
:1019F0006430DE000030DF000130DE020030031C06
:101A0000DF03DF025E0A031D092D5F0A031D092D96
:101A10000A2DFC2CB7306006031D0F2D102D1A2D3A
:101A20006F03031D142D152D1A2D0230EF001130F8
:101A3000EE00552DB7306006031D1F2D202D552DAE
:101A400002306F06031D252D262D552D0A128A15ED
:101A5000D6210A128A15033083120313EF000A16E7
:101A60008A112F250A128A157930F6009030F70076
:101A70008130F8000A168A1132260A128A15B4300B
:101A8000F6009030F700C130F8000A168A113226AD
:101A90000A128A15D330F6009030F7009130F80022
:101AA0000A168A1132260A128A152F30831203135E
:101AB0006006031D5C2D5D2D932D05306F06031D03
:101AC000622D632D932D121507150430EF00932D11
:101AD00060080A128A15B8220A128A15A12D600818
:101AE0000A128A15AE230A128A15A12D2F3060061C
:101AF000031D7B2D7C2D812D0430EF001230EE0074
:101B0000EF2C1F306006031D862D872DA12DEF01C0
:101B1000EF0A1030EE00EF2C60080A128A114A20FA
:101B20000A128A15A12D6F08013A0319682D033A8C
:101B300003196F2D013A0319762D073A03198C2DDD
:101B4000A12D83120313EE01EF2C0A128A110C2827
:101B50007508803983120313A8007508A0002007B8
:101B6000AA00F41FB42DB52DB62D2A142A08031986
:101B7000BA2DBB2DCB2D2A0A031DBF2DC02DC82D7C
:101B80000030F5000030F4000030F3000030F200C7
:101B9000F417F501D32D0030F5000030F4000030CB
:101BA000F3000030F20079088039A90029082806DE
:101BB0000319DB2DDC2DDD2D28177908A000200767
:101BC000A900F81FE42DE52DE62D29142908031995
:101BD000EA2DEB2DFB2D290A031DEF2DF02DF82DFD
:101BE0000030F9000030F8000030F7000030F60057
:101BF000F817F901032E0030F9000030F80000302A
:101C0000F7000030F6002A0829020318082E092ED2
:101C10002F2E281F0C2E0D2E112E8030FF007F0836
:101C2000A8062A08AB002908AA002B08A9007208F8
:101C3000AB007608F2002B08F6007308AB007708BB
:101C4000F3002B08F7007408AB007808F4002B08A9
:101C5000F8007508AB007908F5002B08F900AB0116
:101C60002908A000A1012108A3002A082002A2003F
:101C7000031CA3032308803AFF0080307F02031D6A
:101C8000432E1A302202031C462E472E7E2E750844
:101C9000740473047204031D4E2E502E0130512E15
:101CA000003083120313AB000030F5000030F40065
:101CB0000030F3000030F2002908AA00862E2B1C09
:101CC000622E632E6A2E2B08A0000310200C013810
:101CD000AB006C2E0310AB0C721C6F2E702E712E8D
:101CE000AB170130A000750DF50CF40CF30CF20CE1
:101CF000A00B732E0130FF007F08AA078312031385
:101D000029082A02031C852E862E5F2E281B892E69
:101D10008A2ED32E2A08031D8E2E8F2E982E003049
:101D2000F5000030F4000030F3000030F200FF2F27
:101D30007608F207770803110318013E0319A12E54
:101D4000F307780803110318013E0319A82EF407BE
:101D5000790803110318013E0319AF2EF507751C0E
:101D6000B22EB32E872F2B1CB62EB72EBE2E2B08CD
:101D7000A0000310200C0138AB00C02E0310AB0CE8
:101D8000721CC32EC42EC52EAB170130A000750DDA
:101D9000F50CF40CF30CF20CA00BC72E0130FF0075
:101DA0007F08AA07872F7508803AFF007908803AD4
:101DB0007F02031DE52E78087402031DE52E7708C7
:101DC0007302031DE52E760872020318E82EE92E31
:101DD000412FFF30A000FF30A100FF30A200FF30F4
:101DE000A3007608A4007708A5007808A600790863
:101DF000A7007208A4027308031C730F002F012FA1
:101E0000A5027408031C740F062F072FA60275087D
:101E1000031C750F0C2F0D2FA7022408A0072508FF
:101E20000318250F142F152FA10726080318260FB6
:101E30001A2F1B2FA20727080318270AA307230816
:101E4000F5002208F4002108F3002008F200803099
:101E5000FF007F08A806AB09AB0A2B08031D312F32
:101E6000322F4F2F0130F207003003180130F307F3
:101E7000003003180130F407003003180130F50773
:101E80004F2F7608F2027708031C770FF3027808C9
:101E9000031C780FF4027908031C790FF50275080A
:101EA000740473047204031D562F572F832F2B08BD
:101EB000031D5B2F5C2F832F0030F5000030F400F2
:101EC0000030F3000030F200FF2F0130A0000310BB
:101ED000F20DF30DF40DF50DA00B672FAB1F712F55
:101EE000722F732F72142B1C762F772F7A2F0314D7
:101EF000AB0D7C2F0310AB0D2A080319802F812F07
:101F0000832F0130AA02F41F862F872F652FA90186
:101F1000AB1F8B2F8C2F9A2F2B087F390319912FF2
:101F2000922F952FA901A90A9A2F721C982F992FE9
:101F30009A2F922F290803199E2F9F2FD32F0130FC
:101F4000F207003003180130F307003003180130A6
:101F5000F407003003180130F507751CB02FB12FBE
:101F6000D32F7208A0007308A1007408A20075089E
:101F7000A3000130A400230DA30CA20CA10CA00C03
:101F8000A40BBB2F2308F5002208F4002108F3005E
:101F90002008F2002A0A0319CE2FCF2FD32F0130A9
:101FA000FF007F08AA072A0A0319D72FD82FDD2F91
:101FB0002A08031DDC2FDD2FEB2F0030F500003049
:101FC000F4000030F3000030F2002A08031DE92F6E
:101FD000EA2FEB2FA8012A1CEE2FEF2FF12FF41779
:101FE000F52F7F30FF007F08F4052A08A0000310BA
:101FF000200CF500A81FFD2FFE2FFF2FF51708005E
:1020000035342D3453345434413452345434203420
:10201000203436342D34503441345534533445341F
:102020000034573441345334483449344E344734FF
:102030002034503452344F344734523441344D34C8
:1020400053340034573441345334483449344E34D3
:10205000473420344D3441344334483449344E34C9
:1020600045340034503452344F34473420344334F0
:102070004F344D3450344C34453454344534443466
:1020800000345034523445345334533420344B34B8
:102090004534593420343534203454344F340034EA
:1020A000523445344D344F3456344534203443345F
:1020B0004C344F345434483445345334003457345A
:1020C000413454344534523420344C34453456343D
:1020D00045344C343A34003450344C344534413473
:1020E00053344534203443344C344F345334453422
:1020F0000034503452344534533453342034533440
:102100005734493454344334483400344634553415
:102110004E344334543449344F344E3420342D3407
:102120002034003450344F34573445345234493419
:102130004E34473420344F344E340034413451341B
:10214000553441342034533454344F3452344534AC
:1021500000344234453441344434533448344534F3
:1021600045345434533400345334573435343A34CA
:1021700020345334543441345234543400345334BE
:102180005434413449344E34573441345334483450
:10219000003444344F344F34523420344F345034AC
:1021A00045344E3400345334573436343A342034C2
:1021B000533454344F3450340034443445344C3464
:1021C000493443344134543445345334003457345F
:1021D00041345334483420344F344E344C34593421
:1021E0000034523449344E34533445342B3444345F
:1021F00052345934003450344F3457344534523407
:1022000020344F344E340034443452345934203462
:102210004F344E344C345934003428344D344D341A
:102220003A34533453342934003457344F344F3410
:102230004C3445344E345334003443344F345434E6
:1022400054344F344E3453340034503452344F34B9
:1022500047343A34203400344D344534443449341E
:1022600055344D34003457344834493454344534AB
:1022700053340034543449344D3445343A34003402
:10228000523449344E3453344534003444344134A8
:1022900049344C345934003448344534413456348C
:1022A00059340034483449344734483400345334C2
:1022B000503449344E3400344134553454344F345E
:1022C00000344C344F34573400344D344134583496
:1022D0000034FF1B732983137F1883170008840AB7
:1022E0000319FF0A08007F087F398A000408840A5E
:0622F0000319FF0A820041
:102A3000013410340134FA308316031392008C14DD
:102A4000831203131211080083160313880109115E
:102A500089100A128A1500200A168A110800F2014C
:102A600001300A168A117E250A168A11A630F60050
:102A7000F60B382D000008007E088A007F088200CF
:102A80000A168A113C250A168A118000840A040855
:102A90007D0603190034FF0A0319FE0A402D831234
:102AA0000313A100F20120080A168A117E250A16D6
:102AB0008A11F201F20A8312031321080A168A11FD
:102AC0007E250A168A1108000A128A11F8270A16AA
:102AD0008A110A168A1124250A168A1183160313ED
:102AE0000711071187108312031387100A168A1122
:102AF0001B250A168A110B178B170800F500721890
:102B0000822D862D831203130915892D8312031339
:102B10000911750888008914A630F300F30B8E2D77
:102B200000008312031389101B30F4009E30F30061
:102B3000F30B982DF40B982D0000080046349134C7
:102B40004C349134DD34903433349134BF34903488
:102B50001D34913415349134A9349034F1349034C7
:102B600004349134E73490349E3490345C3491349E
:102B7000613491342C34913452349134653491342D
:102B8000803083120313C3064708F5004608F4009B
:102B90004508F3004408F2004308F9004208F80031
:102BA0004108F7004008F6000A128A15A8250A16FF
:102BB0008A11750883120313C3007408C2007308D6
:102BC000C1007208C0000800F601F701721CE92D6F
:102BD000EA2DF02D7408F6070318F70A7508F707B1
:102BE00001300310F40DF50DFF3E031DF12D0130F2
:102BF0000310F30CF20CFF3E031DF82D7208730452
:102C0000031D032E042EE62D7708F3007608F2004C
:102C1000080083120313A400A001A1017208F400AC
:102C2000F5017408A2007508A300241C182E192EA3
:102C30001F2E2208A0070318A10A2308A1070130AC
:102C40000310A20DA30DFF3E031D202E0310A40CA4
:102C50002408031D2C2E2D2E152E2108F3002008EC
:102C6000F2000800F20178080A168A117E250A1679
:102C70008A11502EF201F20A7708FF0076088400CC
:102C80000A168A1169210A168A110A168A117E25E6
:102C90000A168A110130F6070318F70A0030F70701
:102CA000770883120313FF00760884000A168A113E
:102CB00069210A168A11003A031D5F2E602E3A2EF2
:102CC0000800831203138C1C662E672E942E01308D
:102CD00083160313C2070318C30A0030C30710305A
:102CE0004206273003194306031D772E782E922EB5
:102CF000C201C301831203136B080319802E812EB6
:102D0000842E0130EB02922E6B08031D882E892E33
:102D1000922E6C0803198D2E8E2E922E0130EC020D
:102D20003B30EB0083128C1071088A00700E830018
:102D3000FE0E7E0E0900831203130618A02EA12E8C
:102D4000F02E0711121187140A168A112F250A1660
:102D50008A11C930F6009030F7008030F8000A166A
:102D60008A1132260A168A116C30F6009030F7006C
:102D70009030F8000A168A1132260A168A11831238
:102D80000313061CC42EC52EBF2E0A168A112F252A
:102D90000A168A118630F6009030F7008030F8006D
:102DA0000A168A1132260A168A113A30F600913034
:102DB000F700C030F8000A168A1132260A168A1166
:102DC0000030F6009030F700D030F8000A168A1173
:102DD00032260A168A11831203130715121587105B
:102DE000080083120313A4012408803EA000FF30D2
:102DF0000A168A114F250A168A110130FF007F0832
:102E000083120313A40710302402031C082F092F78
:102E1000F42E9230F6009030F700C230F8000A1617
:102E20008A1132260A168A112230F6009030F700F5
:102E30009130F8000A168A1132260A168A11831276
:102E40000313A5012508D03EA000FF300A168A1101
:102E50004F250A168A110130FF007F0883120313E1
:102E6000A50710302502031C362F372F222F0730DD
:102E700083120313A3007C30A200A20B3D2FA30BEF
:102E80003D2F00000A168A112F250A168A11080004
:102E9000F701F51F4C2F4D2F542FF409F509F40AB3
:102EA0000319F50AF701F70AF31F572F582F5D2F63
:102EB000F209F309F20A0319F30A720873040319F9
:102EC000622F632F922FF601F60A712F0130031043
:102ED000F20DF30DFF3E031D672F0130FF007F0849
:102EE000F607F31F742F752F662F73087502031DE5
:102EF0007B2F72087402031C7E2F7F2F852F720890
:102F0000F4027308031CF503F50201300310F30CFF
:102F1000F20CFF3E031D862F0130F602031D912F98
:102F2000922F752F77080319962F972F9C2FF4094E
:102F3000F509F40A0319F50A7508F3007408F2009C
:102F40000800F3007308031DA62FA72FAC2F8312D0
:102F5000031306083F39FF2F3F3083120313060582
:102F6000F2003F3072060319B62FB72FC22F6D083B
:102F70000319BB2FBC2FC22FED01EA0106083F3910
:102F8000E900FE2F6D08031DC62FC72FD92F060895
:102F90003F396906031DCD2FCE2FD92F1E306A026F
:102FA0000318D32FD42FD92F0130FF007F08EA0751
:102FB000FE2F1E306A06031DDE2FDF2FE62F0130A5
:102FC000FF007F08EA0769088038FF2F3F300605B9
:102FD000F2003F307206031DEE2FEF2FFE2F6D081B
:102FE000031DF32FF42FFE2FED01ED0A1E306A02B0
:102FF0000318FB2FFC2FFE2F6908FF2F3F3008001E
:02400E00FB3F76
:00000001FF
