:060000000A128A11F62F1E
:100EDE0001348316031306083F3886000800831278
:100EEE00031388018316031388010A128A117027CF
:100EFE000A128A110800F1007108031D872F882F2E
:100F0E008D2F8312031306083F39AB2F3F30831208
:100F1E0003130605F0003F3070060319972F982F24
:100F2E009F2F780803199C2F9D2F9F2FF801882F34
:100F3E003F300605F0003F307006031DA72FA82F87
:100F4E00AA2FF801F80A3F3008005530F7000A12B0
:100F5E008A1176270A128A1100300A128A11822704
:100F6E000A128A11F6003E307606031DBF2FC02FDF
:100F7E00D52F8312031388095030F200C330F300CB
:100F8E000130F2020030031CF303F302720A031D58
:100F9E00D42F730A031DD42FD52FC72F3D307606BD
:100FAE00031DDA2FDB2FB32FF709770883120313F4
:100FBE0088005030F400C330F5000130F4020030E8
:100FCE00031CF503F502740A031DF12F750A031DA8
:100FDE00F12FF22FE42FB32F0A128A1100280A12D2
:100FEE008A116F270A128A11F80083010A128A11D8
:020FFE00AC2F16
:02400E00FB3F76
:00000001FF
